:020000022000DC
:10700000000004206D730200C9730200CB730200FC
:10701000CD730200CF730200D173020000000000A4
:10702000000000000000000000000000D373020018
:10703000D573020000000000D7730200D97302006C
:1070400059EC0200DB73020061C20200E5DA0200C3
:10705000F5DA0200DB730200E1C0020081E4020005
:1070600091CA0200A5CA0200B9CA0200DB7302007D
:10707000DB73020085C30200DB730200DB730200D6
:107080009DD6020009770200DB730200DB73020069
:10709000DB730200DB730200A1D50400DB73020086
:1070A000DB730200DB730200CDCA0200E1CA0200FA
:1070B000DB730200DB730200000000000000000030
:1070C000DB730200DB73020079E20200DB73020073
:1070D000F5FF0200DB730200DB7302008DFB020090
:1070E0003DD20200DB730200DB73020000000000EF
:1070F00000000000DB7302000000000005C4020075
:10710000000000000000000000000000000000007F
:10711000000000000000000000000000000000006F
:10712000000000000000000000000000000000005F
:10713000000000000000000000000000000000004F
:10714000000000000000000000000000000000003F
:10715000000000000000000000000000000000002F
:10716000000000000000000000000000000000001F
:10717000000000000000000000000000000000000F
:1071800000000000000000000000000000000000FF
:1071900000000000000000000000000000000000EF
:1071A00000000000000000000000000000000000DF
:1071B00000000000000000000000000000000000CF
:1071C00000000000000000000000000000000000BF
:1071D00000000000000000000000000000000000AF
:1071E000000000000000000000000000000000009F
:1071F000000000000000000000000000000000008F
:1072000039493A480A1A02D0072291438D46384933
:1072100038480A1A06D00722914381F309880222CE
:1072200082F3148834483549354A00F03EF8354831
:107230003549364A00F039F835483649364A00F0C3
:1072400034F836483649374A00F02FF8364837497F
:10725000374A00F02AF837483749384A00F025F80D
:1072600037483849384A00F020F838483849002271
:1072700000F033F837483849002200F02EF837483C
:107280003749091A2CF036FF364A904724482549D9
:10729000884205D00268043003B4904703BCF7E786
:1072A00000200021304A9047FEE7884214D0521A4D
:1072B00012D003460B4313430324234206D1036831
:1072C00004300B600431043AF9D17047037801307F
:1072D0000B700131013AF9D17047884202D0027037
:1072E0000130FAE7704700000000042000E00320AE
:1072F00000000420000004208CFD0500280001206F
:10730000BC030120E0730200E0730200A646050002
:107310008CFD050028000120280001207C47050085
:107320007C4705007C4705007C4705007C4705003D
:107330007C4705007C4705007C4705008AFD050069
:1073400020010600BC030120BC030120BC03012076
:10735000444D0120444D0120484D0120484D01205D
:10736000486D012095730200B522030000F036B885
:107370000F484FF00701884385460E4880470E4866
:10738000016841F470010160BFF34F8FBFF36F8F4D
:10739000FFF736BF09480A490A4A884207D0521AFD
:1073A00005D0037801300B700131013AF9D17047F3
:1073B000000004206134030088ED00E0544705001C
:1073C0000000012028000120FEE7FEE7FEE7FEE7BF
:1073D000FEE7FEE7FEE7FEE7FEE7FEE7FFF7C8BFD2
:1073E000004870473C4D01201FB50021039001AAC1
:1073F00044F20100CDE901110DF0E0F805B05DF8AF
:1074000004FB10B5034649B152B1541E14EA020000
:1074100006D1986019609C80D86010BD0E20FCE7F2
:107420000920FAE710B58468C2688388121B93426A
:1074300008D3C26813400268D154C3680133C360E3
:10744000002010BD0420FCE78268C3689A420AD07D
:107450008268838813400268D35C0B7083680133B1
:1074600083600020704705207047000070B5EFF37F
:10747000108672B60C4A9468012384B993600B4B52
:107480000B4DD3F8801029401160C3F88050D3F819
:10749000841051604FF0FF32C3F8842023460370FC
:1074A00006B962B670BD00BFBC03012000E100E078
:1074B000FC06FFBD084B9A6810B55AB150B9EFF3FE
:1074C000108172B6054A1C6814605C68546098604C
:1074D00001B962B610BD00BFBC03012000E100E0AD
:1074E0000346405882B028B100225A505B5801939D
:1074F000019B012002B0704730B5184C437944F825
:107500002320174C04EBC3031B792BBB03680A88A9
:10751000C3F8082590F904308A78002B4FEA42120C
:10752000D2B214DB0F49CD1885F8002301225D0982
:1075300003F01F0302FA03F341F82530437904EB0B
:10754000C302012144F833001171002030BD064907
:1075500003F00F03CA54F1E70820F7E7D003012036
:10756000C803012000E100E014ED00E003680122FF
:107570001A607047036801225A60704773B501F1C1
:107580005005AD000068ADB24FF480348C40002649
:10759000C0F80843C0F84843465101F5A871455961
:1075A000019522F07F42019D40F82120C0F844431C
:1075B0000BB1C0F8044302B070BD00002DE9F74FD5
:1075C00004680E464FF4803808FA01F822F07F452F
:1075D00006F1500704EB8602C4F84883BF00C4F8E4
:1075E0000883D4F80415BFB29946D2F84035C2F8E2
:1075F00040150022E2515B1A824623F07F43E05996
:107600000090012B00984FEA860B0CD1234B4FF4CE
:10761000806043F001039847DAF800400022E2510D
:10762000E3590193019BD4F80475C4F84483EB1B20
:1076300023F07F43012B14D1184B06F5A8760135B2
:1076400044F8265043F001034FF480609847DAF87D
:107650000040D4F804359F421AD00D2003B0BDE895
:10766000F08FA3446A1ECBF84055D4F80415C9F135
:10767000FF13521A22F07F4203F57F439342ECD36B
:1076800032B90135CBF84055D4F804359942E3E7D7
:10769000C4F844830020C4F80483DFE78047050072
:1076A00003680222C3F8442309B1C3F804237047D6
:1076B00000684FF48271FFF713BF4FF4803303FA71
:1076C00001F10368C3F84813C3F808137047503139
:1076D0008900006889B2FFF703BF0368D3F8040587
:1076E0007047000090F90430002B09DB5A09012192
:1076F00003F01F03994002F14003024A42F82310AD
:10770000704700BF00E100E0024B034A1B681068AD
:10771000184700BFD0030120C803012010B503465D
:1077200053E8000F0A4643E8002494F0000FF7D115
:1077300010BD10B5034653E8000F40EA010243E8CC
:10774000002494F0000FF6D110BD10B5034653E8A5
:10775000002F42EA010043E8000494F0000FF6D144
:1077600010BD10B5034653E8000F00EA010243E8DC
:10777000002494F0000FF6D110BD10B5034653E875
:10778000002F02EA010043E8000494F0000FF6D154
:1077900010BD10B5034653E8000F00EB010243E8AB
:1077A000002494F0000FF6D110BD10B5034653E845
:1077B000002F02EB010043E8000494F0000FF6D123
:1077C00010BD10B5034653E8002FA2EB010043E8BB
:1077D000000494F0000FF6D110BD10B5034653E835
:1077E000002F8A422CBF501A104643E8000494F040
:1077F000000FF4D110BD0121FFF79BBF0021FFF75F
:10780000B0BF0B4610B4114628B123B103605DF838
:10781000044B1B6818470E205DF8044B7047F0B40A
:1078200088B182B107688FB193B18E0712D1C66853
:10783000B1420FD305694C1E1C44AC420AD8BC6847
:10784000A446F0BC60470E20F0BC70470820FBE760
:107850000920F9E71020F7E72DE9F043DDF81C8057
:1078600018B312B3D0F800E0BEF1000F20D00BB374
:107870004768D7F80490B3FBF9F709FB1737CFB97E
:1078800042EA010C1CF0030F16D1C768B94213D3AA
:1078900005694C1E1C44AC420ED8CDF81C80DEF8A5
:1078A0000C40A446BDE8F04360470E20BDE8F083DD
:1078B0000820FBE70920F9E71020F7E7F0B5D8B179
:1078C000D0F800C0BCF1000F18D0CAB14768D7F893
:1078D00000E00EF1FF370F4214D1C768B94211D34F
:1078E00005694C1E0EFB0244AC420BD8DCF810407C
:1078F000A446BDE8F04060470E20F0BD0820FCE73C
:107900000920FAE71020F8E770B550B90E4D0F4C7A
:107910000026641B1423B4FBF3F4B44208D1002006
:1079200010E00368002BF1D0BDE87040DB69184718
:107930002B6813B901361435EFE7DB692846984701
:107940000028F7D070BD00BF0000012028000120F2
:1079500041DF7047064B10B500241C70054B1C60BE
:10796000BFF35F8F0449054800F003F9204610BDBE
:10797000DC030120E003012088470500D403012037
:1079800007B500230DF107008DF80730FFF76EFDF6
:10799000F1EE103A23F09F03E1EE103ABFF35F8F50
:1079A0000A4B4022C3F884219DF80700FFF782FDAF
:1079B00025F0DCFD20B103B05DF804EBFFF7C8BF94
:1079C00020BF40BF20BF03B05DF804FB00E100E032
:1079D0000268136851688B4283BF82680132521873
:1079E000C81A88BFD01A7047F8B5154602681768DC
:1079F00016685268964284BF82680132961B0B4615
:107A0000C2684168B542044607FB02110BD86A43BD
:107A100018462CF075FCA2683D44954288BF0025AD
:107A200022681560F8BD06FB02F718463A462CF0AE
:107A300067FCE2686168AD1B6A4338442CF060FC67
:107A400023681D60EEE7036881681A685B688B42F3
:107A500034BF01330023D31A58425841704773B5DD
:107A6000002304460DF107000D468DF80730FFF79F
:107A7000FDFC2046FFF7E7FF10B1237C002B42D12D
:107A80002368A1685E685A688A4234BF01320022C6
:107A90005A6028B11A688A4234BF013200221A6043
:107AA000E2686368511E072925D8DFE801F0041554
:107AB00024192424241D2A789A552046FFF788FF8C
:107AC00023689A6882421CD300249DF80700FFF7C0
:107AD000F1FC204602B070BD2A8823F81620ECE79E
:107AE0002A6843F82620E8E7D5E9000103EBC6033E
:107AF000C3E90001E1E7294606FB02302CF000FC57
:107B0000DBE79860E0E70424DFE7F7B505460E46BB
:107B10001446AAB10DF1070000278DF80770FFF792
:107B2000A5FC2846FFF754FFA0420CD3224631465D
:107B30002846FFF759FF3C469DF80700FFF7BAFCBF
:107B4000204603B0F0BD0524F6E713B50023044634
:107B50000DF107008DF80730FFF788FC2046FFF78E
:107B600037FF04469DF80700FFF7A4FC204602B04B
:107B700010BDD1E90032934208BF00230160436089
:107B80007047436843B10268916852680B4493425E
:107B9000436004BF0023436070470000054A037838
:107BA000D35C012213B1043005F0FEBC0C3005F0AB
:107BB00019BA00BF44090120054A0378D35C0122A9
:107BC00013B1043005F0A6BC0C3005F0C3B900BFFA
:107BD0004409012037B50578012D0C4605D0022D4A
:107BE00028D0002D32D003B030BD037A2BB904F178
:107BF0001D012046FFF7D2FFF5E7436804F120009E
:107C00001978FFF70FFC70B18DF800500190A3694F
:107C100068469847A16AE36AA28C5B1A9A42E6D248
:107C200001236375DFE7A26AE36A9A42F2D08DF816
:107C30000000ECE7C3688DF800501D312046019329
:107C4000FFF7ACFFA36968469847CCE701F11C0534
:107C5000294604F13000FFF7F7FB30B929462046EA
:107C600003B0BDE83040FFF7A7BF03238DF8003015
:107C7000E8E70000F0B5044689B017460D46002934
:107C800043D08A8809682030FFF7BBFB00283AD12F
:107C9000AA89A96804F13000FFF7B3FB002832D1AC
:107CA0001B4E0FCE6D460FC596E80F0085E80F00FE
:107CB000236C5A6906921A7C8DF81C70003A18BF22
:107CC00001228DF814205A7C002A0CBF00220E22BB
:107CD0008DF81520DA6802929A6803921A68019268
:107CE0005B680C4A009369462046049403F0ACFE9E
:107CF00048B9236C60751B68013304D004F11D0181
:107D00002046FFF74BFF09B0F0BD0720FBE700BF9F
:107D100094470500D57B020070B5467D04462030AF
:107D2000FFF792FB05464EB10023637504F11D0178
:107D30002046FFF733FF08B1FFF756FB284670BD1A
:107D4000F8B500F1300704463846FFF76BFB0546EF
:107D5000C8B923780D4AD35C83B1201D05F0CEFB52
:107D600088B904F11C0631463846FFF76DFB50B95F
:107D700031462046BDE8F840FFF71EBF04F10C0075
:107D800005F0DCF8ECE72846F8BD00BF4409012007
:107D900008B5064A0378D35C23B1043005F030FB04
:107DA000002008BD0C3005F06DF8F9E7440901200A
:107DB000F8B50468054694F8200006F0D9FA04F1F5
:107DC00018060027207AFF2803D006F0D1FAFF23F7
:107DD0002372607AFF2803D006F0CAFAFF23637289
:107DE0002068431C04D004F009F84FF0FF332360EF
:107DF000E7720C34B442E5D16868BDE8F84004F09D
:107E0000CDBD0000F8B5134E0C460025012706EB4A
:107E10004106735D63B1735D013BDBB27355735D06
:107E2000A3B90D4B53F824301B682046DB699847F3
:107E3000691C02294FF00105EBD14FB1064B53F8F5
:107E400024305868BDE8F84004F01ABE0027EFE778
:107E5000F8BD00BFF8030120E403012010B540681D
:107E60000B4902798C5CFF2CE3B20DD0FE2B0DD0B8
:107E7000006803F5A87350F82330064850F8220034
:107E8000984203D1FF238B54002010BD0120FCE752
:107E900018040120040401202DE9F74F0368164659
:107EA00093F82120022A04460F4640F098804FF0B4
:107EB0000C0A0AFB01FA03EB0A025268964208D147
:107EC000DB6913B1426810799847002003B0BDE820
:107ED000F08FFFF7C3FF8346002840F0828063687D
:107EE000DFF80C911B79FE2209F80320256895F82C
:107EF000200006F097FA05EB0A08FEB998F8090089
:107F000006F090FA98F8080006F074FA63681B7996
:107F1000FF2209F803200C2303FB075523686E603A
:107F2000DB69002BD1D063681A792F4B03EB420336
:107F30000221D955606804F091FDC6E7AB699E4205
:107F400007D398F808009EB206F06CFA98F809007A
:107F5000DAE7D8F80420606893423BD0964239D2E1
:107F60005B46032104F04CFD636895F820B01B6864
:107F700055F80A0003F5A673019398F80A3033B355
:107F800003F0BAFF02460199584606F013FA95F835
:107F9000200006F02FFA63681B7909F80370636804
:107FA0001A79124B43F822604FF00C0808FB07586F
:107FB000606800233246394604F022FD98F8080034
:107FC00006F018FA98F8090006F014FAA3E703F08F
:107FD0007FFFD7E70379FF2209F80320E4E70820B1
:107FE00074E7112072E700BFF803012004040120A8
:107FF0001804012003681B8B5A436423B2FBF3F27D
:1080000092B2FFF749BF00002DE9F04F87B0044658
:1080100002928A46002900F04081056895F82130D7
:10802000002B40F03C8106F015FA08B1852860D19C
:1080300003F05EFE002853D04FF07043994AD3F806
:10804000E83F03F0F003303B18BF01231370FF2318
:1080500085F820304FF6FF7300222B814FF0FF335D
:10806000EA722B60EA75AB82EB6005F1200006F046
:108070004BF98046002839D106465AF826305A1C5A
:1080800000F09580276897F82120002A40F0FF80B3
:108090000AF10801C6F1000909F00C0911F806B04F
:1080A000039307EB090118464A600C2202FB067293
:1080B00004A982F80AB003228DF81020BBFA8BF2D3
:1080C00052098DF8112001228DF8122003F01AFEBA
:1080D000039B012290B104272046FFF769FE09E0C7
:1080E00003F0C4FD0028A7D0032703E02046FFF7D4
:1080F0005FFE0427384607B0BDE8F08F47F8093027
:10810000BBF1000F00F0B0801F2B86BF664903F063
:108110001F034FF0A0419A40C1F80C2509F1080057
:10812000384406F0F1F80028D5D109F109003844A7
:1081300006F0EAF80028CED10C2303FB0673039364
:10814000187A06F06FF9039B587A06F06BF957F826
:108150000900BBF1000F00F0928003F0CDFE8346D2
:1081600057F8090003F0B4FE626811680C2202FBA4
:108170000677B30003F5A073194481465A46387A4E
:1081800006F018F96368787A19684A4601F5A4710F
:1081900006F010F90123FB7263681A79434B03EB75
:1081A00042033146002220469A55FFF775FE731CA4
:1081B000022B4FF001067FF460AFDAF81030B3F510
:1081C000805F02D3B8F1090F63D1364B1B7823B11E
:1081D000B8F1010F38BF4FF0010800238DF81130BE
:1081E00060688DF810804FF4E063ADF812300379C9
:1081F0002F4A059304A904F05BFB074600287FF48F
:108200006BAF6068DAF810600368D3F81035DBB242
:108210004FEA167CC3F1200136010CFA01F1A3F1FB
:108220002002DE402CFA02F20E4316434FF0010802
:10823000AE6104F0E1FBCDF80080042332466068B3
:10824000022104F0F6FB0221606804F019FC029B95
:10825000EB616368174A1B7985F8218042F8234057
:10826000154AFF21D15445E71F2B86BF0E4903F065
:108270001F034FF0A0419A40C1F808254EE703F0D4
:1082800027FE834657F8090003F036FE6CE70827FF
:1082900022E75B0808F1010891E70B272AE7082786
:1082A00028E700BF1D04012000030050F80301204F
:1082B000057E0200E4030120180401202DE9F047A7
:1082C0000768DFF87090002604463D46B0466368B4
:1082D0001B7909EB430303F80680EB7A7BB1236833
:1082E00028680C2202FB0633997AB1FA81F1490918
:1082F00003F00AFE286803F0BBFDC5F8048006F110
:10830000010ABAF1020F05F10C054FF00106DED1AA
:108310006368074A1B79FF21D154606804F06CFB45
:10832000606804F021FB87F821A0BDE8F08700BF5A
:1083300018040120F80301202DE9F0410546D0E999
:10834000006004F01FFB6868022104F099FB96F8B6
:10835000200006F067F8344600274FF00C08E37A57
:10836000CBB12B68206808FB07339B7AF3B91F2831
:1083700087BF154A00F01F0101464FF0A0420123BC
:108380008B40C2F8083503F085FD207A06F04AF8E4
:10839000607A06F047F87B1C022B04F10C044FF0C6
:1083A0000107DCD186F82170BDE8F0811F2887BF66
:1083B000054A00F01F0101464FF0A04201238B4007
:1083C000C2F80C35DFE700BF0003005038B5056880
:1083D00095F82130022B044608D1FFF7ADFF204667
:1083E000FFF7E6FC002085F8210038BD002BF6D110
:1083F0000820FAE729DF704728DF704770B5036867
:108400009E6886B004460D466EB11422002168466F
:108410002BF0A8FFA3680593237901952BB1012BBD
:108420000DD06846B04706B070BD01238DF800300E
:1084300023690293E368039363690493F1E70223DA
:108440008DF80030E3681B030293F5E70846704798
:1084500000207047024B187A003818BF012070477F
:1084600028040120034B187A0122B0FA80F05A74D4
:10847000400970472804012008B510461A462BF021
:108480003FFF002008BD000008B514220021044869
:108490002BF068FF034800F05EF9002008BD00BF24
:1084A000280401203C04012010B5094C094B43600D
:1084B0002046FFF7A0F940B925F058F80649207486
:1084C0001C2306488C2200F033F9002010BD00BFA9
:1084D00028040120D44705004C0401203C0401205D
:1084E00038B5234C234D237A3BB92349234800F068
:1084F00089F9286008B9606038BD022323722B68AF
:108500001A7972B1012A24D028680321FFF776FF77
:1085100000232372636018491848BDE8384000F012
:108520009CB9D3E90520121AB2F5805FD3E9031391
:1085300028BF4FF480529208012A014438BF01221B
:108540001844FFF757FF50B11128DDD101232372E2
:10855000D2E7D3E903031844FFF74EFFF3E7237C88
:10856000002BC9D1BDE83840022000F009B800BF97
:108570002804012024040120200401203C040120BF
:1085800038B5234C237A002B41D0022B09D1032884
:1085900030D0204B00221B68E2601A793AB1012AE0
:1085A00022D0637C7BBBBDE83840FFF799BFD3E99D
:1085B00005128D1AB5F5805F94BF521902F58052ED
:1085C0009A619142EDD102284FF0000308BF19468D
:1085D0002372104B18BF0D211868FFF70FFF0E49CB
:1085E0000E4800F03AF9DCE71A6901321A615B695A
:1085F0009A42E7E7E3680133082B01D8E360D0E74C
:108600000023E360DFE7BDE8384024F09FBF38BDBA
:108610002804012024040120200401203C0401201E
:10862000831E012B01D8FFF7ABBF704700F0FD039D
:10863000012B08D1044B00225A74421E5042504173
:108640001874FFF74DBF70472804012008B506488D
:10865000FFF7D1F830B9054B5B7C1BB9BDE808408A
:10866000FFF73EBF08BD00BF2C04012028040120F5
:108670002DE9F34180460D46104801A916461F46D4
:1086800000F08BF80446B0B11722002105302BF022
:1086900069FE2D0B0123237101A90848C4F800804D
:1086A000A760E560666100F0A2F8FFF7CFFF002049
:1086B00002B0BDE8F0810420FAE700BF3C040120CD
:1086C0002DE9F34180460F460F4801A916461D4685
:1086D00000F063F80446A8B11822002104302BF002
:1086E00041FE089BA36001A9C4E903670648C4F8DA
:1086F0000080656100F07BF8FFF7A8FF002002B062
:10870000BDE8F0810420FAE73C04012050E8012F85
:10871000C2EA024240E80123002BF7D1704750E83B
:10872000022FC2EA224240E80223002BF7D1704711
:1087300010B561B1B2FBF3F403FB1424A4B244B945
:10874000C0E9001484608281C381204610BD0E20E0
:10875000FCE70920FAE782B050E8022FC188B2EBAB
:10876000324F4FF0000317BF92B241EA014142EA93
:10877000014104E04268B2EB324F08BF012340E8F8
:108780000212002AE8D18DF807309DF80730002B3F
:108790000CBF1120002002B0704737B550E8013FF0
:1087A0009DB2C48925448489A54228BF2D1B048914
:1087B000A54202BFBFF32F8F002207E0C5EA0305E1
:1087C00040E80154002CE9D14FF001028DF803205C
:1087D0000193019A0A609DF8031001F0FF0321B193
:1087E000006810FA82F003B030BD1846FBE708B508
:1087F0000A884B889A4203D1FFF788FF012008BD01
:108800000020FCE737B550E8023F1FFAA3F5C48803
:10881000A54202BFBFF32F8F00220DE0C48925447B
:108820008489A54228BF2D1BC3EA054540E80254B0
:10883000002CE8D14FF001028DF803200193019A3A
:108840000A609DF8031001F0FF0321B1006800EBFE
:10885000124003B030BD1846FBE708B50A884B88C4
:108860009A4203D1FFF75BFF012008BD0020FCE71F
:1088700001F01F024B090121914000EB8300FEF73C
:1088800064BF01F01F0301229A404B0900EB8300F3
:10889000D143FEF772BF4B0901F01F0150F82300CE
:1088A000C84000F00100704743681B68184700008B
:1088B000024B5B6803B11847704700BFE00401201A
:1088C000020600F00F034CBF02480348DB001844C7
:1088D000704700BF44050120FC04012008B5FFF7E4
:1088E000EFFF016009B14B681968416008BD0000E5
:1088F000024B0146D3E90002104700BFFC040120EF
:10890000022838B5044620D0431F032B8CBF002318
:108910000123144D2A78022A1ED0053A032A1BD9B6
:1089200013B1114802F040FF2A786FF4827323419B
:1089300003F00103022A83F0010308D0082A06D0BD
:108940000BB106F071FE2C7038BD0123E1E7002B5E
:10895000F9D106F05FFEF6E7002BE5D102F05EFFED
:10896000E2E700BFED040120280001200378052B79
:1089700073B5044635D12F4AD2F88434D2F8802416
:10898000D2B222B92C4ADBB2052B08BF14462B48C1
:1089900001A9FFF702FF0546002841D023680360C4
:1089A00000260DF103008DF80360FEF75FFD244BF8
:1089B00024481B88026801339B1AEB803146FEF77E
:1089C000ADFEA8809DF80300FEF774FD01A91B48C9
:1089D000FFF70DFF1C4B1B6801460BB32046984761
:1089E0001EE0002BD3D1194B1D68DDB98DF8045062
:1089F000144D01A8FEF73AFD2B6813B9104B62889D
:108A00001A8001210F48FEF7D0FE9DF80400FEF702
:108A100051FD0D4B1B6813B10121204698472B686F
:108A200002B070BD2B6860889B6898472B685D68B2
:108A3000DBE700BF00700240F84705009405012005
:108A40008C05012090050120E0040120F0040120A4
:108A5000FFF78CBF012805D0022805D030B90448A3
:108A6000FFF784BF0348FBE70348F9E7704700BFFF
:108A7000EE470500EA470500E64705000148FFF715
:108A800075BF00BFE04705002DE9F04F87B0002615
:108A90000546884691461F4602966B6800225C6830
:108AA0002946012302A8A047044638B98DF80600DC
:108AB00004908246564503D8052028E00136ECE7AD
:108AC0006B680DF10602D3F804B02946012304A80F
:108AD000D8476B680DF10702D3F804B0294601238B
:108AE00004A8D8479DF8073043459DF8063013D1B8
:108AF0004C450FD1109A13603B7087F801806A686B
:108B0000023B54682946BA1C04A8A047002007B0BD
:108B1000BDE8F08F0134E4B26A68023BD2F804B0D9
:108B20002946002204A8D8479DF806309A44C1E798
:108B30002DE9F743082305462D492E484FF484724A
:108B4000FFF7F6FD002851D12B4806F083FD0446BF
:108B5000002847D1294B1870294B1860294B014632
:108B60001860482228482BF0FDFB2848482221465F
:108B70002BF0F8FB264B1DBBC3E900551D720020EE
:108B800005F068FF18B1852801D0FEF72DFC214FB4
:108B900097F80890002607F10908F4B2A14516D904
:108BA00004EB4404444400256378EAB293420CD9B0
:108BB000A37823443946985CFFF790FE0135F3E72C
:108BC00095E8070083E80700D9E70136E5E70B23BE
:108BD00010488DF8043001A9FFF766FE044608B17D
:108BE00006F0F4FB204603B0BDE8F0830324F9E768
:108BF000A405012094050120518A0200ED04012002
:108C0000F8040120F404012044050120FC040120A3
:108C1000E00401202448050008B506F0B1FC08B9BD
:108C2000082008BD06F0B4FC0028F9D1044805F07E
:108C300047FF08B90020F4E7FEF7D6FBFAE700BFCC
:108C4000F447050006F0CCBB07F032B84FF0804384
:108C5000D3F83824920702D50348FFF787BED3F82C
:108C60003824D107F4D47047E547050007B58223BF
:108C700001A88DF80430FFF779FE03B05DF804FB1E
:108C80002DE9F74300F1090590F8088004462946CC
:108C90000027FBB2984525D991F801900026F3B240
:108CA00099450AD98B788A190136D05CFFF708FEFE
:108CB0000368002BF3D0112021E001370331E8E7EE
:108CC000AB782B442146985CFFF708FE01366B78A1
:108CD000F2B29342F4D801370335FBB2984503D979
:108CE0000026F4E70027F8E7074B1A6852B91C6022
:108CF00001A90B2320468DF80430FFF7D5FD03B002
:108D0000BDE8F0831368F0E7F8040120024B1878FF
:108D1000003818BF01207047EC040120030710B58C
:108D2000044604D406F0D4FD204607F08FF8204610
:108D3000BDE8104007F032B806F0FEBF014B1868DE
:108D4000704700BFF8040120F0B50A4B02461868CE
:108D500078B1057A0023861DDCB2A54201D80368EC
:108D6000F5E7013303EB4307F75D9742F4D101B117
:108D70000C70F0BDF80401201146FFF795BD08B551
:108D800000F00F03082B07D8FFF79AFD006818B111
:108D9000BDE80840FFF788BD102008BD38B5054B79
:108DA00005461C6804B938BD29462046FFF77CFDFE
:108DB0002368F6E7F804012038B5074B05461C6820
:108DC0000CB9062038BD29462046FFF76DFD062860
:108DD000F8D12368F3E700BFF804012038B5044652
:108DE0000D4606F079FC48B1054B1B78022B05D1E6
:108DF00029462046BDE8384006F080BC082038BD32
:108E0000ED04012038B504460D4606F065FC48B176
:108E1000054B1B78022B05D129462046BDE838407A
:108E200006F0E6BC082038BDED040120F8B5436823
:108E30009B6804460D46164613B92EB1072002E082
:108E400098470628F9D0F8BD237AAB4213D90934E4
:108E500005EB45052C446778F3B29F4201D800200A
:108E6000F1E762789A4208D9A219A378D05CFFF79B
:108E700055FF0136F0E77378FFDE00231B78FBE730
:108E80004368DB6870B504460D4603B19847237A02
:108E9000AB4213D905EB450509342C44002566780F
:108EA000EBB29E4200D870BD62789A4209D962192D
:108EB000A378D05C06F040FF0135F1E700235B7832
:108EC000FFDE00231B78FBE743681B6903B11847EB
:108ED0001846704770B5084B1C6804B970BD267AF7
:108EE0000025E9B28E4201D82368F5E7002220462A
:108EF000FFF79CFF0135F4E7F804012070B5084B3B
:108F00001C6804B970BD267A0025E9B28E4201D8EA
:108F10002368F5E72046FFF7B3FF0135F5E700BF0B
:108F2000F804012038B503780F2B04460CD983F0E0
:108F30008002052A00D938BD813B042B60D8DFE8C8
:108F400003F029446B75D7000F2BF4D801A252F817
:108F500023F000BF4F9002007F900200DF900200DC
:108F6000A3900200C1900200F19002000391020060
:108F7000378F02002D9102003191020035910200DD
:108F8000378F0200378F0200378F0200378F0200C1
:108F9000FB9002006848FFF7ABFC6748FFF7FEFE56
:108FA0000D20FFF785FCFFF7A9FF00F012FF634BD0
:108FB0001B6843B9624B187A06F0BEFA0120BDE87F
:108FC0003840FFF79DBC0120F6E7FFF797FF06F05A
:108FD0004DFE0020FFF794FC5A48FFF7DFFE59488A
:108FE000FFF786FC0E20FFF763FC574B1B78022B24
:108FF00002D0053B032B9ED8BDE8384002F00EBCE2
:10900000514B1B78062B05D003F0FD03052B92D1A5
:109010000220D4E70820D2E74B4B1B78032B8AD1E0
:1090200006F060FE002886D00420C8E7464B1B7877
:10903000032B05D106F056FE10B10420FFF760FCAB
:1090400006F0B0FA00283FF476AF0620B7E73E4BB3
:109050001B78032B01D0082B02D13C48FFF762FF9D
:109060000020FFF725FC354B1D68002D3FF463AF52
:1090700028462146FFF718FC2B685D68F5E7FFF7E7
:109080003DFF00F09DFE0220FFF73AFC0120FFF7B4
:109090000FFC2046FFF72CFC2046BDE83840FFF7C8
:1090A0007DBE294B1B78082B06D10220FFF728FC38
:1090B00006F0C4FA0320EAE70520FFF721FCF9E7F0
:1090C0000320FFF7F5FB2248FFF712FC2048FFF7CB
:1090D00065FE1D4B1B78062B9AD107206FE70320F6
:1090E000FFF70EFC0220FFF7E3FB2046FFF756FEDA
:1090F0002046BDE83840FFF7FBBB0F20FFF7D8FB49
:10910000CAE78078FFF7DCFB214643680068984790
:1091100000283FF410AFA07802073FF40CAF03071C
:109120003FF509AFBDE8384006F0ACBB0820E5E7E5
:109130000920E3E70A20E1E7E4470500F404012001
:10914000E0040120E3470500ED040120E2470500AB
:10915000E147050037B5224D28680023019328B95F
:1091600020492148FFF74EFB2860D0B1848874B1B4
:10917000C388B3F5006F28BF00235A1C013CC2808E
:10918000ADF80630848001A8FFF7CCFE06E0FFF7BB
:10919000C9FE14491448FFF760FB2C60012003B09E
:1091A00030BD124C2368C3B18DF803000DF10300EC
:1091B000FEF75CF90E4A1388B3F5006F28BF002351
:1091C000591C118020460121ADF80630FEF705FB41
:1091D0009DF80300FEF76EF9D5E71846DFE700BFFC
:1091E000DC040120D8040120940501209005012011
:1091F0008C050120C36903B118477047036800223A
:10920000C3E91E22C3E920221A845A62DA6203F1FA
:1092100034025A677047CA699A4210B543600CD34A
:109220008C690460086F18440867D01A1C44C86130
:1092300000388C6118BF012010BD01F128020260C6
:109240008B670020F8E758B90B681A7B202A09D1F0
:10925000D3F80E209A615A8A9A831A7D9A777047BA
:109260000320704706207047F0B5054600680E7A67
:10927000002800F08780A0F213307C2800F21983C8
:109280007C2800F21683DFE810F082009600980038
:10929000A400B000BC00C800D400140314031403DD
:1092A000140314031403E900F50014031403140356
:1092B000140312011E012C011403140314033F01B3
:1092C0004B017901140314031403140361016D01AC
:1092D0007901140314031403140314031403850104
:1092E00014031403140314039901A501B101BD0172
:1092F000C90114031403D501E101ED01F9010502CF
:1093000014031403150221022D023902140314035D
:10931000450251025D02690275021403140314032D
:109320001403140314031403140314031403140385
:109330001403140314031403140314031403140375
:1093400092029E02140314031403B70214031403BD
:1093500014031403D4021403140314031403D402D7
:10936000140314031403140314031403E002EC02A3
:1093700014031403140314030A031403140314033F
:1093800014030A0308202871002B00F096820AB10A
:10939000287910700B20012B287140F29182012452
:1093A0000AB1287910550134087D28719C4205D3F3
:1093B00040F2153349E00024F2E700240AB128798D
:1093C0001055013402209C42287103D340F2163319
:1093D0003BE000240AB128791055013402209C4258
:1093E000287103D340F217332FE000240AB1287903
:1093F0001055013402209C42287103D34FF4467368
:1094000023E000240AB1287910550134487E2871E0
:109410009C4203D340F2193317E000240AB12879A3
:109420001055013400209C42287103D340F21A33B6
:109430000BE000240AB128791055013400209B4F1D
:109440008642387003D840F29A33012033E2092073
:10945000A342287103D840F22133F6E700240AB171
:1094600028791055013404209C42287103D340F21E
:109470002233EAE700240AB1287910558B480F7A85
:109480000078874204F10104894F40F21C8201F107
:10949000090C00EB40000CEB000E9C421CF8000095
:1094A000C7F800E0287103D340F22733CDE700244A
:1094B0000AB128791055013400209C42287103D349
:1094C0004FF44A73C1E700240AB12879105578484F
:1094D00000680134407828719C4203D340F229335C
:1094E000B3E700240AB12879105571480F7D006850
:1094F0000078874204F101041ED102209C422871A9
:1095000003D340F22D33A0E700240AB12879105587
:10951000013402209C42287103D340F22E3394E799
:1095200000240AB1287910550134487E28719C42E4
:1095300025D340F22F3388E78F7D874223D10A203D
:109540009C42287103D34FF44D737EE700240AB187
:1095500028791055013400209C42287103D340F231
:10956000353372E700240AB1287910550134002000
:109570009C42287103D340F2363366E700240AB1D7
:109580002879105501340020A342287103D840F2F5
:109590003D335AE700240AB12879105544480F7D1D
:1095A00000680078874204F1010440F0E88005205B
:1095B0009C42287103D340F2423346E700240AB1AB
:1095C00028791055013424209C42287103D340F29D
:1095D00043333AE700240AB12879105501340020BA
:1095E0009C42287103D34FF451732EE700240AB133
:1095F00028791055013410209C42287103D340F281
:10960000453322E700240AB128791055013401209E
:109610009C42287103D340F246334CE100240AB146
:1096200028791055013405209C42287103D340F25B
:1096300049330AE700240AB128791055013424205F
:109640009C42287103D340F24A33FEE600240AB15B
:1096500028791055013401209C42287103D340F22F
:109660004B3328E100240AB1287910550134032036
:109670009C42287103D34FF45373E6E600240AB1E9
:10968000287910550134887D28719C4203D340F21B
:109690004D33DAE600240AB128791055013404204C
:1096A0009C42287107D34FF45473CEE6B4060120D0
:1096B000B006012000240AB1287910550134242075
:1096C0009C42287103D340F25133BEE600240AB114
:1096D00028791055013402209C42287103D340F2AE
:1096E0005233B2E600240AB1287910550134022021
:1096F0009C42287103D340F25333A6E600240AB1FA
:1097000028791055013405209C42287103D340F27A
:1097100056339AE600240AB12879105501342420E2
:109720009C42287103D340F257338EE600240AB1DD
:1097300028791055013406209C42287103D34FF438
:10974000567382E600240AB1287910550134087D49
:1097500028719C4203D340F2593376E600240AB1C3
:10976000287910550134887D28719C4203D340F23A
:109770005A336AE600240AB1287910550134554855
:1097800000684778544807700020544F3870524F93
:109790003F78874204D8524800780130C0B24EE684
:1097A0000720A342287103D840F26E334DE600240F
:1097B0000AB128791055013405209C42287103D341
:1097C00040F26F3341E600240AB128791055414830
:1097D000424F00683F7890F801C0BC4504F1010495
:1097E00075D990F802C038449C4210F80C002871DA
:1097F00003D340F2733328E600240AB128791055C8
:1098000034480F7D00680078874204F1010406D1D6
:1098100003209C4228710DD34FF45E7315E68F7DB3
:1098200087420BD102209C42287103D340F27D3342
:109830000BE600240AB12879105501344020A342D8
:10984000287103D84FF46173FFE500240AB1287929
:109850001055013400209C42287103D340F2853317
:10986000F3E500240AB1287910551A480F7D0068E5
:109870000078874204F1010407D1086A9C4200780D
:1098800028710DD340F28A33DFE58F7D87420BD1FB
:1098900000209C42287103D340F28F33D5E5002489
:1098A0000AB12879105501340C4800780130C0B253
:1098B0006BE7002318462B60F0BD40F21333C4E57C
:1098C0004FF44573C1E500233B601B78FFDE0023A6
:1098D000FBE700BFB0060120AD060120AC06012069
:1098E000B4060120037A012B06D9437B012B06D94C
:1098F000837B1844407B704700235B78FFDE0023A6
:109900001B78FBE72DE9F0470B7888B005460C463D
:109910000E2B1AD8DFE813F0430140014301430145
:1099200019000F00A600190019003D01190043019C
:109930004301430143014A78D1094FEA521332D01F
:1099400013F0030303D0012B1ED0062428E102F0FC
:109950001F02012AF9D1A278062AF6D105A803939D
:1099600000F09CFC03AB0093E278217903460646A5
:109970002846FFF789F80528E7D0601C039A31468E
:1099800000F042FA04460BE1A378212BDDD1B4F8B4
:109990000720072AD9D10168601C183108B0BDE83A
:1099A000F04700F031BA012BCFD1A3780668202B05
:1099B00034D0222BC9D1B4F80730002BC5D1338C59
:1099C000B4F80340348403F0010304F00104A3421B
:1099D00000F0E580C4F10301C9B2FFF70BFC002CD5
:1099E00040F0DD802B7A012B40F2DE806B7B002B78
:1099F00000F0DC80AB7B2B44187B06F08FF8284608
:109A0000FFF770FF06F08AF806F13403C6E91E443A
:109A1000C6E920447462F4627367C0E0B4F80730AA
:109A2000072B92D14FF4E462B28100240DF10B00B8
:109A30000E36CDE9056307948DF80B40FDF716FD52
:109A4000204605A9FFF7CAF9044630B9594B03A9C6
:109A5000CDE9033500F0C6F904469DF80B00FDF78B
:109A600029FD9DE0037A002B00F0A280837A00F1AB
:109A70000901002B00F09A80C27AA3788A5C9A428E
:109A800000F08D801B0694F803900CD5B9F1000FFF
:109A900005D0B9F1030F00F08280032480E001219A
:109AA000FFF7A8FB7BE009F0FD03012B77D0B9F1AC
:109AB000000FF2D10468FFF715FF3F4BA76A05932B
:109AC00004F10C0380460693BFB9E36FA767C4E9AE
:109AD0001F73E36A002B4AD0D4E90B0104F124037D
:109AE00083E80300E76205A94046FFF78BF90446C7
:109AF00000212846FFF77EFB52E0D4F884A0606A7C
:109B0000574528BF574604F1340631463A462AF0F5
:109B1000F7FBE36F3B44C4E91F93AAEB0703A3677A
:109B2000E36A3E44666713B304F1240604F12C078C
:109B300097E8030086E80300A36F606AC4F82C90DE
:109B40001BB3A26A616F9A4214D82AF0D9FBA36AA8
:109B5000A26FC4F88030D21AA267626F1A4462679B
:109B600000212846FFF746FBE36A002BE0D1636241
:109B70000024BDE71A462AF0C3FBA26FA36AE2677E
:109B80009B1AA362636A13446362636A002BAAD1BF
:109B9000EEE70321FFF72EFB2846FFF72FFB0024FB
:109BA000204608B0BDE8F0876378FFDE1B78FCE74D
:109BB0005B78FAE747920200179202001FB503682C
:109BC0001B8CDB0714D5037A012B13D9437BA3B17C
:109BD000837B18449306CDE901120CBF01230023B7
:109BE000007B039301A9FFF7F9F805B05DF804FBCA
:109BF0000820FAE700235B78FFDE1B78FCE70368A8
:109C0000D3F8800070470000F7B50468238CDB07A9
:109C10000F4616463BD5656A002D32D1A16F9142A1
:109C20000ED3616F38462AF06BFBA36FC4F88060D7
:109C30009B1BA367636F33446367284603B0F0BD83
:109C4000C4E90972FFF74EFE134B009304F10C03B5
:109C50000646019369B10A463846616F2AF050FB07
:109C6000A36FA26AD21AA262626AC4E91E531A449E
:109C7000626269463046FFF7C5F8002808BF9220A7
:109C8000DCE7E36A2BB9C4E90B129220D6E708207F
:109C9000D4E71120D2E700BF1792020000207047DE
:109CA0002DE9F04F4B6885B082460C46009233B9DF
:109CB0000B681B681E6816B98D68002D65D005F00D
:109CC000DDFDE368009A9A4228BF1A464FF000096A
:109CD00004F11003064690464D4601270193B8F162
:109CE000000F2AD0A368616843459B4628BFC3463E
:109CF00049B35A4670192AF003FB00236360A26837
:109D0000E368A2EB0B02A3EB0B03A260E360A8EBFA
:109D10000B085D4422BBB9F1000F03D02268126822
:109D200012682260F3B12368F3B963602DB1009B20
:109D3000AB428CBF002707F001073846CAE900652F
:109D400005B0BDE8F08F002BD9D0216801984B6891
:109D50007219D3F804905B46C8474FF00109CEE76B
:109D6000002BBCD10027BAE70023029321684B687F
:109D70000022D3F804B002A80123D84708B9206113
:109D8000ADE7A3680133A360F0E72F46D5E70000F5
:109D9000084B1A7882420CD0052818BF064A187062
:109DA00018BF137805481CBF23F002031370FFF798
:109DB000B9B870472907012028070120104805007D
:109DC00008B50020FEF7AAFFBDE808408020FEF796
:109DD000A5BF08B50020FEF7AFFFBDE80840802012
:109DE000FEF7AABF38B505460C4605F0EDFDA842C2
:109DF00005BFD4E90001034B1020C3E9000108BFEF
:109E0000002038BDDC0601207FB5C38893421E4682
:109E100028BF164693420D46144625D9802005F0EA
:109E200055FCB4FBF0F303FB1044B4FA84F464096A
:109E300000230DF1030003948DF80330CDE90156A2
:109E4000FDF714FB01A98020FEF7C8FF044620B9E6
:109E500006498020FFF7C6FF04469DF80300FDF782
:109E600029FB204604B070BD0024E1E71C48050032
:109E70002DE9F04F0B780E2B87B00D4613D8A3B108
:109E8000013B0D2B11D8DFE813F015001D00190060
:109E900010002D00E70110001000100010001D0040
:109EA000D901DD01E501852B16D00624204607B037
:109EB000BDE8F08F0320FFF76BFFF6E7A848FDF73A
:109EC0009DFC08B90024F1E7A64B0122DA65BFF337
:109ED0006F8FBFF34F8FF5E7A34B1B78032BE4D1B4
:109EE0000420E8E705230DF10D008DF80C309F4D9F
:109EF00005F0FEFC9DF80D2000232B6002F01F03EF
:109F0000032B00F21781DFE813F00400F300500187
:109F1000A40012F0600640F09C809DF80E30002AEC
:109F200000F0A080062B16D0082B00F08C80002BB0
:109F300040F08F808E494B708E4B1B7813F0020FD0
:109F40000CBF012303230B7002220DF10D00FFF75C
:109F50005BFF04464CE09DF81030022B0BD0032B26
:109F600062D0012B75D1BDF81330002B00F08A812F
:109F700081491222E9E7BDF81370002F00F08281B9
:109F8000092F28BF0927FEF7D9FE4FF0090804461C
:109F9000B14694BB764C79493A4620462AF0B0F94E
:109FA0002671A4F80280FEF7B1FE18B1E37943F000
:109FB0002003E371FEF7C2FE714BC3E900049F600A
:109FC000BDF81320DA6001A800238DF80430FDF7F6
:109FD0004DFA6C498020FEF715FF044620B96A4906
:109FE0008020FFF7FFFE04469DF80400FDF762FAAB
:109FF000062C2ED0002C57D04EE0CDF804904FF018
:10A00000000A63680022D3F804B02146012301A8A6
:10A01000D84730B9237A3344DEB22368D0441C6871
:10A02000B7E70AF1010AECE7BDF81330002B00F0A6
:10A030002981BDF811109DF80F0000F07FF901464D
:10A0400038B1027881E7484B1B78052B05D0042BEB
:10A0500004D003A8FEF7B0FEA5E001264449012282
:10A060000E7072E7032B0FD0092B29D0012BF0D1F2
:10A07000BDF80F30012BECD1FEF748FE58B13D4A38
:10A08000137823F002030EE0BDF80F30012BE0D16E
:10A09000FEF73CFE18B90F2405F08CFC06E7354AA4
:10A0A000137843F0020313702B68002B00F0EA8052
:10A0B00005F08AFC00287FF405AF05F03BFC01E7C2
:10A0C000294B1B78043B012B01D90824E4E79DF8B8
:10A0D0000F302BB9FEF712FF0420FFF759FEE3E71C
:10A0E000012B01D00724D7E7FEF7F4FE0520F4E7A3
:10A0F0009DF8110001A9FEF727FE064608B91024B5
:10A10000CAE79DF8041003AAFEF736FE06280446A7
:10A110007FF470AF9DF80D2012F0600F0AD1124B42
:10A120009DF8041018789DF80E30D4092ED01BB17C
:10A130000A2B07D00624AFE70528C6D10C490B80AF
:10A14000022207E00528C0D13046FEF7BDFE0849CF
:10A15000224608700DF10D00FFF756FE23E000BF08
:10A16000240701200070024029070120DC0601209D
:10A17000E406012028070120514805004848050051
:10A18000B8060120144805001C4805000B2BD1D14E
:10A1900005289AD1BDF80F30FF2BA3D89DF80F20CA
:10A1A0003046FEF743FE044624E79DF811000307FE
:10A1B0001BD19DF80D3013F0600FBBD19DF80E2020
:10A1C000334B9DF811401B78012A25D0032A14D067
:10A1D000002AAFD1052B02D027077FF476AF2046A7
:10A1E00005F05CFB2B490880AAE703A9FEF7C7FD31
:10A1F000062804467FF4FEAEDBE726079AD4BDF8B6
:10A200000F20002A96D1200794D0052B7FF45DAF54
:10A21000204605F037FB47E721078BD4BDF80F2018
:10A22000002A87D1220785D0052B7FF44EAF204628
:10A2300005F04EFB204605F009FE35E70020FFF74C
:10A24000A7FD3FE64FF08043D3F83834DB0701D554
:10A250000220F4E70120F2E7C87803283FF425AE96
:10A260000D4E33688BB10022716832609847044606
:10A2700000287FF411AF336823B1AB78002B7FF453
:10A2800021AE1AE705F08CFB1CE60E2404E700BFA4
:10A2900029070120E4060120DC06012008B1402343
:10A2A00003600148704700BFE406012070B54FF01D
:10A2B000805286B0D2F8A830D2F8A42000926FEA7B
:10A2C00083436FEA93430B4A0B4E9BB20D2102A8C6
:10A2D00028F0D3FE02AD002402A829F069FF8442D1
:10A2E00001D306B070BD15F8013B06F8013B0134FF
:10A2F000F2E700BF634805002A07012010B50E4BA6
:10A3000053F8204023780BB9A01C10BD0020FFF7A4
:10A31000C5FF013C00235A1CA15C39B9DBB20133F3
:10A320005B00DBB243F440730380EEE7D3B220F866
:10A3300013101346EFE700BFF4CA0500034608B93F
:10A34000FFF7DCBF012807D0022805D0032803D07F
:10A35000042801D0052809D1054A02EB43035878A7
:10A3600020B1044B53F82030002BE9D10020704776
:10A3700058CB0500F4CA050070B5064E054600240A
:10A3800056F8043B0BB1284698470134042CF7D10A
:10A3900070BD00BF380801204388033300EB8303FE
:10A3A00099420BD382884FF6FF739A4208D00388F4
:10A3B00033B18068431C58425841704702207047AF
:10A3C0000120704768B10268084B9A4209D1406881
:10A3D000074B984207D00133984214BF0320012055
:10A3E0007047032070470020704700BFDEC0ADDE1D
:10A3F000FE011EF1C21C92B240F2FE339A4230B509
:10A400001ED8124B187838B91C895D892C44144425
:10A41000A4B2B4F5806F0AD9187DA0B9988BDC8BF3
:10A420002044104480B2B0F5806F0CD80120088021
:10A43000142101FB0033002059890A445A8130BDA0
:10A4400048F20860FBE748F20660F8E77007012071
:10A450000B4A0C495388142000FB0311CB6833B915
:10A4600004204968107001220748FDF727BA074900
:10A470000523137002238B80012209680023F3E770
:10A480005807012070070120000001206807012003
:10A4900007B5002305490093054A096805480823C4
:10A4A000FDF7DAF903B05DF804FB00BF680701208F
:10A4B00070CB05000000012007B500230146009382
:10A4C000034A04480823FDF7C7F903B05DF804FB0D
:10A4D00068CB05000000012013B500230C46009353
:10A4E0000146084A08480423FDF7B6F938B9074978
:10A4F000142202FB041101230B7402B010BD48F2B8
:10A500000D60FAE764CB0500000001207007012010
:10A5100037B50A480A4B42689C8819685388032556
:10A52000033305709BB2002000909B0001EB840177
:10A530000448FDF791F903B030BD00BF5807012072
:10A54000680701200000012010B501460448FEF70D
:10A5500024F91C220446002129F004FF204610BDE6
:10A56000980701202DE9F0410D460223154F2B805D
:10A57000164600F5805100F108044FF001088C42A6
:10A580000ED2236801330BD02046FFF705FF48B1F8
:10A590000EB186F80080022809D14FF480632B8029
:10A5A000BDE8F081A3683A68934200D93B602B88EC
:10A5B0006288033313442B806388033304EB8304E2
:10A5C000DDE700BF3408012038B5134B14220D46D7
:10A5D00002FB00335C682B6804F580518BB15C880A
:10A5E000033403EB84048C4209D22368013306D080
:10A5F0002046FFF7D1FE012808D0022803D1002011
:10A6000003E00834EFE72C60012038BD6388033392
:10A6100004EB8304E7E700BF7007012043682DE9DE
:10A62000F34105460E46002B46D0254AD1688B42A1
:10A6300042D3126993423FD813F003043CD1214A1C
:10A6400001891289914238D101689A68914234D1C6
:10A650001D494A68934203D902F5805293420ED3B2
:10A660008A6993420DD902F58052934209D201239F
:10A670003380B4FA84F0400902B0BDE8F08123468B
:10A68000F6E748F20964F4E7CDF8048001A93846FA
:10A69000FFF79AFF30B90134A7B2022C3780F3D10B
:10A6A0000020E9E7019B2A6899689142EED16B602E
:10A6B000044B1B892B81DFE700244FF00008EBE7F8
:10A6C0000000012058070120700701202DE9F04704
:10A6D0001C461E4B1B7807468846164683B392B32A
:10A6E0008CB3DFF870904FF0140AA588012D02D9C1
:10A6F00048F2096022E00AFB05F319F803302BB990
:10A7000021462846FFF760FF18B920600135A58073
:10A71000EBE723681FB199883A889142F0D1B8F1EC
:10A72000000F04D01988B8F800209142E8D19A6847
:10A73000C6E90023064B1B8933810020BDE8F08762
:10A7400048F20160FAE748F20460F7E75008012098
:10A75000580701207007012008B5074B5888191DBC
:10A76000FFF732FF18B1BDE80840FFF7D1BEBDE8E2
:10A770000840FFF76DBE00BF580701202DE9F043E8
:10A780009D4F89B006463D682DB99C499C48FEF70F
:10A7900039F8054638602A78531E052B00F20A81E5
:10A7A000DFE813F0060071007100FE00FE005401A6
:10A7B000E6B1944B00225A604FF406441422002163
:10A7C00003A829F0CFFD41F61D539C4208BF002489
:10A7D0003B6804941A78023A042A00F2ED81DFE81B
:10A7E00012F0CE01DA01FC0104020B022B79032BDB
:10A7F0001CD8DFE803F014022A35834A1378022BB1
:10A800001AD0137D022B4FF0010317D114214B43B3
:10A81000D1180020D0544868FFF74EFE03E0012312
:10A820002B71FFF735FE002800F0E380754B002206
:10A830005A6048F20D64C1E70023E7E7714A1370DC
:10A840000023536041F61D54B8E770497048002357
:10A8500002222B718A8009680122FDF72FF8E2E7B6
:10A860006C4B694C5B88694A14214B43E118002604
:10A870002E714D6810681560958848600D81022121
:10A88000E6549180C8E7B5F81490DFF87C81A6B152
:10A89000AA7DEB88022A06D9142101FB0981DA1C62
:10A8A000088902440A81142202FB0982C3F57F430E
:10A8B0005189FD330B4453817EE7142303FB098345
:10A8C00019895C68AB7D04EB8104062B62D8DFE854
:10A8D00003F00F4C3442045864004F4A4F490023A0
:10A8E00053601046AB691360FFF798FE002870D0E4
:10A8F0000223AB75002300930423EA182146444841
:10A90000FCF7AAFF002874D048F20D64AA7DEB88FA
:10A91000022A06D9142101FB0981DA1C08890244A4
:10A920000A81142202FB0988C3F57F43B8F80A2084
:10A93000FD331344A8F80A3040E72B69002B0CBF05
:10A9400001230323AB750023009305F10C020423BC
:10A9500004F10801D3E70123AB750022EB880092D4
:10A960002A699B0004F10C01C9E7032A14BF0623DE
:10A970000523AB7500230093042305F10802E118B9
:10A98000BDE70623AB75254B1988234B5868FFF7A5
:10A99000A3FDB7E748F20E64B8E741F61D54B5E7EA
:10A9A000002E7FF409AF2B79012B39D0022B3FF415
:10A9B00049AF13B148F20E6400E702232B710DF189
:10A9C0000A01EB68039303A8CDE90466FFF726FEAE
:10A9D00010B948F20964F1E60498BDF80A108388BA
:10A9E000EB8003882B81FFF777FD044600287FF476
:10A9F000E5AE09B0BDE8F0835407012050070120FF
:10AA000098070120500801207007012068070120E5
:10AA100000000120580701204407012040070120C1
:10AA2000DFF8F48103AA43463146A81DFFF74EFE26
:10AA3000044618B9B8F804100498D4E748F209633A
:10AA40009842C8E900667FF4B9AEFBE6002E7FF4B9
:10AA5000B3AE6B4B1A7BAAB11E731A78013A062A61
:10AA6000A8D801A151F822F013AB020039AB0200C3
:10AA700057AB02005DAB0200B5A9020063AB020058
:10AA800075AB02001A78072AE7D801A151F822F025
:10AA9000B1AA02005BAA02005BAA0200D7AA0200C8
:10AAA000EBAA02000FAB02000FAB0200D3AA020018
:10AAB0001A89544901321A8100225A801A730A787D
:10AAC000B2FA82F252099A720A7DB2FA82F25209FD
:10AAD000DA72012207E04C4958688A8840880332BC
:10AAE00002448A8002221A70B7E75C88454A4649C8
:10AAF000142505FB0422086854685060888810817A
:10AB000002200C608880002111740622EBE70722E6
:10AB1000E9E79A7A32B9DA7A8AB900221A705A8049
:10AB20005A608FE6374900229A72CA68002AF2D129
:10AB3000097C0029EFD05A80FFF70EFE55E700226E
:10AB4000DA72304A116A0029E7D192F82420002AEB
:10AB5000E3D00122EFE7FFF7DBFC46E7FFF778FCE5
:10AB600043E75A88274B142101FB02335868FFF74B
:10AB7000A3FC3AE700225A60FFF78AFC35E701227E
:10AB80008DF80C201A89ADF818209A88DB68ADF88A
:10AB90001A20059310E002228DF80C201A89ADF8D6
:10ABA00018209A88ADF81A20DA689B7D05929A1FC2
:10ABB000534253418DF81C3003A8FFF7DDFB0026FC
:10ABC000124913483E60FDF748FE12480121FCF788
:10ABD000F8FD00287FF4D7AD0BE703228DF80C2099
:10ABE000DA88ADF818201A89D0E704228DF80C20F5
:10ABF000DB88ADF81830DFE705238DF80C30DBE794
:10AC00005807012070070120680701205007012024
:10AC1000980701204C080120380701204068FFF701
:10AC2000ADBD000008B505480121FCF7B2FD18B91B
:10AC3000BDE80840FFF7A2BD08BD00BF4C080120D9
:10AC40002DE9F3411F46314B1B7806460D46002B7C
:10AC50004FD0002950D009884FF6FF7399424ED04B
:10AC60006B88002B4BD06B689B074BD152B9B5F862
:10AC700008800DF102014046FFF7BCFB38B102B07D
:10AC8000BDE8F0811388B2F80280ADF8023001A867
:10AC9000FFF75AFC002307708375BDF802308382EA
:10ACA0006B680361044601211948FCF77EFD2B887F
:10ACB0002381032F6B88A38004BF0423A3754FF067
:10ACC000000508BF3368E06008BFA3611148A4F81D
:10ACD0000680658101A9FDF78AFD36B1E36833601E
:10ACE0000D4B75601B89B5723381FFF79BFF002008
:10ACF000C5E748F20160C2E748F20460BFE748F2E6
:10AD00000360BCE748F20260B9E700BF50080120C9
:10AD100034080120980701205807012008B5034690
:10AD200007480268042A08D00168064A42F8213020
:10AD30000121FCF73AFD002008BD48F20B60FBE75B
:10AD400048080120380801202DE9F04F764F87B0E0
:10AD50001422002101A829F005FB3B7803F0FF0B2A
:10AD60001BB101A8FFF708FB03E0381DFCF743FD0A
:10AD700020B10024204607B0BDE8F08FDBF8F83F93
:10AD8000DFF8C8A15C1C08BF4FF010234FF08052C1
:10AD900008BF5B6911695269581C08BF02FB01F3C7
:10ADA000A3F58042CAF81020A3F5E0435F49CAF832
:10ADB0000C3000225046FCF724FD04460028D9D16F
:10ADC0005B495C481C238C22FDF7B2FCA1464FF086
:10ADD00003082546DAF80C604E443046FFF7F2FAD5
:10ADE00001285CD0032848D133685A1C02D0524A4B
:10ADF000934234D1331D06F58052196801312ED1AA
:10AE000004339342F9D14D4B1A682AB902221E60CD
:10AE10009A804FF0010B0BE014236B43484802214A
:10AE2000C218C154474B56605D8001351181ADB2E7
:10AE300044F0010409F58059B9F5405FCAD1B8F171
:10AE4000010F06D9E4B2062C4BD04FD814F0FD0FF9
:10AE50004CD100233B7048F20A647B608AE7384A91
:10AE600014236B43D11808F1FF384E600321D154ED
:10AE70001FFA88F80135ADB2DCE7314914236B4382
:10AE8000CA180020C854566003F1100208330A445F
:10AE900030461944FFF766FB44F00204EAE7274B0B
:10AEA000BBF1000F0FD0DFF898C014226A430CEBFF
:10AEB000020102200CF802001A684A60214A088147
:10AEC00055800135ADB220491E6000223046FFF7A3
:10AED00049FB1A4B9B88022B14BF082304231C43F5
:10AEE000A8E701233B7000237B603AE76846FFF741
:10AEF0002BFB013C012303700A2C09D8DFE804F086
:10AF000006080608070807080F110F000023037141
:10AF100069460848FDF76BFCFFF784FE29E7032329
:10AF2000F5E70223F3E700BF50080120B44705000E
:10AF3000A807012098070120DEC0ADDE68070120C8
:10AF400070070120580701206C0701200000012034
:10AF500073B50D460446C0B1B9B10DF10601FFF756
:10AF60005DFBA8B10C4BBDF806206668142000FB01
:10AF700002300121FCF719FC63682E600C336B6012
:10AF80000123A372002002B070BD48F20460FAE70A
:10AF900048F20960F7E700BF7C07012013B50446BB
:10AFA000A8B10DF10601FFF739FB98B1BDF80620F5
:10AFB0000B4B142101FB0233DA6872B1A27A62B141
:10AFC000DA680020013ADA60A07202B010BD48F2DF
:10AFD0000460FAE748F20960F7E748F20560F4E731
:10AFE0007007012002230022FFF72ABE18B10323B5
:10AFF0000022FFF725BE48F2046070470D4B1B7816
:10B0000007B59BB101A8FFF79FFA0623037001A9BA
:10B010000948FDF7ECFB094B1A780AB101221A73B3
:10B02000FFF700FE002003B05DF804FB48F201606A
:10B03000F9E700BF500801209807012058070120B8
:10B0400007B5ADF80600ADF804100DF1060001A932
:10B05000FFF73CFB03B05DF804FB00003F4B1B789F
:10B060002DE9F74F0446002B71D0002872D0102232
:10B0700000210230002629F075F9394F032323807F
:10B08000B046B146B3464FF0010A79687A893D89E6
:10B09000019208461544FFF795F9032808BF208858
:10B0A0002F4B019A04BF00F1FF302080142000FBD9
:10B0B0000630ADB2C0684A441FFA82F9A844A2899A
:10B0C000A4F80890C5F58065ADB25844AA421FFAAD
:10B0D00080FB1FFA88F838BFA581A4F802B001F1FF
:10B0E0000805A4F80A8001F58051A94224D92A68EC
:10B0F000013221D02846FFF74FF9012805D0022858
:10B1000010D0A2880132A28007E0E2880132E280FA
:10B11000E289688803320244E2816A88033205EBDF
:10B120008205E2E7E28884F810A00132E280E28939
:10B13000491B02EBA101E181721C022A07F11407ED
:10B140004FF00106A1D1002003B0BDE8F08F48F216
:10B150000160F9E748F20460F6E700BF50080120FB
:10B160007007012010B5D0E90242D1E90203A042E4
:10B1700093412CBF0120002010BD000008B50A48F3
:10B18000FCF7ABFA094AD2E90031C018084BD3E901
:10B19000002341F10001904271EB030303D210F14F
:10B1A000807041F1000108BD30000120D00801206D
:10B1B000C8080120294B73B51E7804461EB9002625
:10B1C000304602B070BD0028F9D0FFF7D7FFD4E9B0
:10B1D00002239042994139D300230DF107008DF8E5
:10B1E0000730FCF743F923692BB94FF0FF324FF0DA
:10B1F000FF33C4E902239DF80700FCF75BF9D4E9AB
:10B200000530984700250DF107008DF80750FCF731
:10B210002DF92369C3B1D4E90212B2F1FF3F08BF8F
:10B22000B1F1FF3F05D05B1842F10002C4E90232E0
:10B2300035469DF80700FCF73DF9002DBFD00848C2
:10B24000214600F0A3F9BBE71D46F2E7B3F1FF3F4B
:10B2500008BFB2F1FF3FB2D0F1E700BFD80801202C
:10B2600078CB050037B505460C460A4801A9FDF71D
:10B2700094FA68B10570446001A90648FDF7B7FA71
:10B2800010B9002003B030BD0348FCF72BFAF8E7F3
:10B290000420F7E75C0801203000012013B50023EB
:10B2A000ADF8043006238DF806300F490F48082307
:10B2B0005822FDF73DFA044698B90D4A0D4801A9F8
:10B2C000FCF71AF9044660B90A480121FCF7E8F9CD
:10B2D0000123094A07481946FCF750F9074B012298
:10B2E0001A70204602B010BD6C0801205C080120D5
:10B2F000DDB3020030000120FFFF7F00D8080120ED
:10B3000030B56AB103684FF0FF344FF0FF355A6132
:10B310004A1E5142C3E9024551411961002030BD26
:10B320000720FCE7F7B5044600250DF10700174696
:10B330000E468DF80750FCF799F8D4E90223B3F1D3
:10B34000FF3F08BFB2F1FF3F07D1FFF717FF3018EB
:10B3500041F10001C4E9020101259DF80700FCF755
:10B36000A9F855B12369A76103B1266121460020E0
:10B3700003B0BDE8F040FFF775BF284603B0F0BD4D
:10B3800037B5054600240DF107008DF80740FCF79E
:10B390006DF8D5E90223B3F1FF3F08BFB2F1FF3FDB
:10B3A0001FBF4FF0FF324FF0FF33C5E902230124E6
:10B3B0009DF80700FCF77EF834B12946012003B060
:10B3C000BDE83040FFF74EBF204603B030BD00005F
:10B3D0000148FCF782B900BF300001202DE9F74396
:10B3E0000646FCF765F940B1604AD2E9003113F135
:10B3F000807341F10001C2E9003100213046FCF7C1
:10B4000066F938B15A4C236823B12068FFF7D2FEA1
:10B410000023236001213046FCF759F920B1FFF7E2
:10B42000ADFE544BC3E900015348514C01A9FDF74F
:10B43000E9F94FF0FF384FF0FF3990B94C4D4F48C4
:10B4400000F0BBF8002800F08780D0E90223B3F1B8
:10B45000FF3F08BFB2F1FF3F34D1484800F0A7F8E2
:10B46000EDE70378012B17D0022B22D05BB941689E
:10B47000D1E90223B3F1FF3F08BFB2F1FF3F02D091
:10B480003E4800F083F801A93B48FDF7E6F901A921
:10B490003948FDF7B7F9D0E741682368994202D1EE
:10B4A00000232360EFE7354800F08AF8EBE7C0E9B6
:10B4B0000289324800F07BF80028F8D1304B012295
:10B4C0001A70E0E7296891B12968D1E90201824246
:10B4D0008B412FD22B68D3E90223B3F1FF3F08BF82
:10B4E000B2F1FF3F03D02968244800F04FF8234809
:10B4F00000F05DF8D0E902480746FFF73FFE201A4A
:10B5000068EB0108012878F1000818DBB0F5D40FCA
:10B5100013D3FFF75DFF1B4A02441B484FF4160389
:10B520000021FCF74BF890B92B6813B93046FCF7B3
:10B530001DF82F6003B0BDE8F0832246EDE7124806
:10B540000021FCF7BAF83846FFF734FE01E00D2879
:10B55000F9D000232B6072E7054B1B68002BE9D163
:10B56000304603B0BDE8F043FCF704B8D008012032
:10B57000DC080120C80801205C08012078CB050008
:10B58000D8080120FFFF69003000012070B5446831
:10B5900006460D46206820B1B368294698472368BF
:10B5A00018B923682B60256070BD1C46F2E743681C
:10B5B000186808B102681A607047436818687047D5
:10B5C0004368186800B970471A688A4203D10A684C
:10B5D0001A60012070471346F3E742DF704743DFEC
:10B5E0007047000038B5084B051EA3F1080214BFD0
:10B5F0001C46144623682BB11A6822605B682846F3
:10B600009847F7E738BD00BFF008012020B9054B87
:10B6100001225A70FFF7E6BF012802D1014A90705B
:10B62000F8E77047E008012020B9034B01225A7067
:10B63000FFF7D8BF704700BFE008012038B50E4CB7
:10B640002378B3B90D486360A3602361E36000F021
:10B650004FFA054621F08AFF08B900F055FA012398
:10B660002370074BD3F800340BB10123A370284695
:10B6700038BD8525F5E700BFE00801200DB60200C2
:10B680000000014037B5184CA378054603F0FF02CF
:10B690009BB110B143680120984700230DF10700CA
:10B6A0008DF80730FBF7E2FEE3680133E3609DF8B5
:10B6B0000700FBF7FFFE03B030BD0DF107008DF86A
:10B6C0000720FBF7D3FE25B1226913463BB92A6058
:10B6D0002561E368002BE7D100F02CFAE4E79D42F6
:10B6E000F7D01B68F2E700BFE008012037B50D4C2A
:10B6F00000230DF107008DF80730FBF7B7FEE36874
:10B70000013BE360E36833B9074BD3F8005415B944
:10B7100000F01DFAA5709DF80700FBF7CBFE03B003
:10B7200030BD00BFE008012000000140012813B532
:10B730000CD0032820D038B9134B0122C3F8802045
:10B74000BFF34F8FBFF36F8F02B010BD0F4C0023BC
:10B750000DF107008DF80730FBF788FE23780BB951
:10B76000FFF76CFFE3689DF807000133E3600123F6
:10B77000A370FBF79FFEE7E700F0C6F902B0BDE853
:10B780001040FFF7B3BF00BF00E100E0E008012078
:10B7900008B521F0EBFE28B94FF08043D3F8180428
:10B7A000C0F3004008BD000037B51B4C6378054668
:10B7B00003F0FF029BB110B14368002098470023BB
:10B7C0000DF107008DF80730FBF750FE6368013379
:10B7D00063609DF80700FBF76DFE03B030BD0DF10F
:10B7E00007008DF80720FBF741FE25B1A26813463C
:10B7F00053B92A60A5606368002BE7D121F0B6FE3B
:10B8000030B1FFF7EAFEE1E79D42F4D01B68EFE7B5
:10B8100000F0AEF9DAE700BFE008012073B50F4C85
:10B8200000230DF107008DF80730FBF71FFE63685A
:10B83000013B6360666836B921F098FE054640B169
:10B84000FFF7CDFE66709DF80700FBF733FE02B0F0
:10B8500070BD00F099F96570F5E700BFE0080120C0
:10B8600030DF704731DF70471FB500238DF80700C8
:10B870000DF10F008DF80F30FBF7F8FD21F076FE8B
:10B8800050B909480DF10701FCF7E9F80648FCF743
:10B89000DAF808B100F056FD9DF80F00FBF70AFE3C
:10B8A00005B05DF804FB00BF4047050007B520B1B7
:10B8B00003280DD003B05DF804FB104B1B78012B5F
:10B8C000F8D100F03FFD03B05DF804EB00F042BD9D
:10B8D00000230DF107008DF80730FBF7C7FD07487F
:10B8E0000378012B05D10649013000F0EBFC00F094
:10B8F00017FD9DF80700FBF7DDFDDBE7410901209F
:10B9000069B8020013B5124C2378FBB9114A8DF8BF
:10B910000730002808BF10460288A4F801200DF166
:10B920000700FBF7A3FD21F021FE30B90A49601C96
:10B9300000F0C8FC40B900F0F3FC9DF807000123BB
:10B940002370FBF7B7FD002002B010BD8520FBE798
:10B950004109012084CB050069B8020010B50446F6
:10B9600021F004FE20B90548FCF7EFF8207010BD67
:10B970002046FFF775FF0028F5D1F8E7404705009E
:10B980002DE9F341002405460E46A0460DF10700BF
:10B990008DF80780FBF76AFD21F0E8FD074638B90E
:10B9A0000E4832462946FCF7B0F8044600F0B8FCD1
:10B9B0009DF80700FBF77EFD47B131462846FFF7AB
:10B9C00051FF42F207039842044605D0022CDDD015
:10B9D000204602B0BDE8F0810524F9E740470500A4
:10B9E0001FB503788DF800304368019383688DF8A4
:10B9F0000830C368054A0393054B684653F8213065
:10BA000052F82110984705B05DF804FB4809012061
:10BA1000500901201FB503788DF800304368019369
:10BA200083688DF80830C368054A0393054B684660
:10BA300053F8213052F82110984705B05DF804FB07
:10BA40004809012050090120F0B5194B90F800C0B9
:10BA5000DFF86CE089B043F82C20164B16460A69D3
:10BA600043F82C200C464B7F0EF80C3007460FCCC9
:10BA70006D460FC594E80F0085E80F003B78CDF8C0
:10BA800010C01EF803304BB1002E0B4A694608BFA8
:10BA90003246381D01F0DAFB09B0F0BD002E074A2E
:10BAA000694608BF324607F10C0001F01DF9F3E7C3
:10BAB0005009012048090120E1B9020015BA02002D
:10BAC0004409012010B5034653E8000F00EA0102C3
:10BAD00043E8002494F0000FF6D110BD00F180403F
:10BAE000002382B0036003680193019B02B070479A
:10BAF000044B0246187918B91A6001229A807047DF
:10BB0000852070475C090120084B1A68D20704D4CD
:10BB1000C02283F8002301221A604FF080420123E3
:10BB2000C2F81835024A1370704700BF00E100E008
:10BB30005809012008B54FF48270FFF7CFFF4FF08E
:10BB400080430222C3F8042301229A6008BD4FF00B
:10BB5000804208B50223C2F808334FF48270FFF721
:10BB6000BDFF0123D360D2F81834DB03FBD408BD3A
:10BB700008B54FF48070FFF7B1FF4FF0804301220A
:10BB8000C3F804231A6008BD4FF08042012108B5B4
:10BB90004FF48070C2F80813FFF7A0FF5160D2F88D
:10BBA0000C3403F00113B3F1011FF8D0014B002254
:10BBB0005A7108BD5C0901204FF0804110B5D1F8E1
:10BBC000003163B14FF48070FFF788FF0D4B587957
:10BBD0000122C1F8082310B95A711B6898474FF029
:10BBE0008042D2F8043163B14FF48270FFF776FFE0
:10BBF0000223C2F80833034BBDE810401B68012044
:10BC0000184710BD5C09012000F1804000F5C040DC
:10BC1000002382B0036003680193019B02B0704768
:10BC2000054B4FF0FF32072843F8202084BF1B1834
:10BC300083F86020704700BF640901201F288ABF75
:10BC4000094B4FF0A04300F01F0003EB8000D0F839
:10BC5000003723F44033C0F80037D0F8003743EA08
:10BC60000141C0F8001770470003005070B51C4C2C
:10BC700094F8743093BB4FF6FF7104F13800FF2540
:10BC80005A09012A0CBF0A464FF0FF3203F01F0683
:10BC9000F240D20748BFC5540133302BF0D1002108
:10BCA000C8B20131FFF7BCFF0E29F9D10D4B0022BC
:10BCB0001A609A800C4BC02183F80613402119604A
:10BCC0004FF4BE70FFF7A0FF084B4FF00041C3F8E0
:10BCD0000413012384F87430104670BD0820FCE77B
:10BCE00064090120D209012000E100E00060004069
:10BCF000034B93F87400003818BF0120704700BF51
:10BD00006409012030B53A4B1A1892F938400134D1
:10BD10006BD18C78002C57D01C46002254F8045B61
:10BD200001354CD11C1884F83820002443F82240F7
:10BD3000920002F1804202F5C0420B78D2F8105511
:10BD40004C7825F499151B04240525F4F85504F4C2
:10BD5000801403F44033C2F8105523430402D2F890
:10BD6000105504F47C5423432B43C2F810354B7810
:10BD7000012B2DD11F2887BF1E4A00F01F0101464D
:10BD80004FF0A04201238B40C2F808351F288BBF1B
:10BD900000F01F030346174A4FF0A04203F5E0737B
:10BDA000032142F8231020FA01F2134900F00700A2
:10BDB00001238340885C03438B54002003E001325D
:10BDC000082AABD1042030BDFE2382F83830CEE7FC
:10BDD0001F2887BF074A00F01F0101464FF0A0420D
:10BDE00001238B40C2F80C35D0E70820EBE700BFF9
:10BDF0006409012000030050D209012038B5184C15
:10BE00002518014695F83800072809D8FFF708FFDC
:10BE100095F93830134A03F5A273002042F8230045
:10BE20000C44FF2384F8383001F0070201239340CB
:10BE30000D48CA08845C1C4210D01F2988BF01F03D
:10BE40001F0101F5E0718CBF084C4FF0A0440225A2
:10BE500044F82150815C21EA0303835438BD00BFBC
:10BE60006409012000600040D20901200003005055
:10BE7000074B034493F938309B0003F1804303F5EB
:10BE8000C043D3F8102542F00302C3F810257047D1
:10BE900064090120074B034493F938309B0003F1F8
:10BEA000804303F5C043D3F8102522F00302C3F802
:10BEB0001025704764090120044B034493F83800AF
:10BEC0000C30800000F0FC00704700BF64090120C6
:10BED00008B5FFF7F1FF00F1804000F5C04008BD54
:10BEE000044B034493F838001830800000F0FC0045
:10BEF000704700BF6409012008B5FFF7F1FF00F1AA
:10BF0000804000F5C04008BD0A4B0344003993F956
:10BF100038304FEA830303F1804303F5C04318BF71
:10BF20000121D3F8102522F4801242EA0152C3F80D
:10BF30001025704764090120F0B5414E331893F97C
:10BF40003830002B79DA8B78C3F3400C9B0747BF5E
:10BF50000023082508230E25AB4201D10420F0BDA3
:10BF600056F8237001374FEA83044AD137185DB27F
:10BF700046F8232087F83850BCF1000F02D1334433
:10BF800083F860008B785F071DD4DA073BD51F2844
:10BF900087BF2C4B00F01F0202464FF0A04303EB7B
:10BFA0008203D3F8002722F00202C3F80027264FAD
:10BFB000C20800F0070C012303FA0CF317F802C0C3
:10BFC00043EA0C03BB548B780A789B072AD504F10B
:10BFD000804303F5C0430002D3F8101521F44F311C
:10BFE00021F44071C3F810151204D3F8101500F4B1
:10BFF0007C5002F4403210430843C3F8100500207F
:10C00000ADE70133A8E71F284A7887BF0D4F00F03E
:10C010001F0303464FF0A04703F5E073920047F873
:10C020002320C4E7A5F1080346FA83F393F86810C8
:10C0300041EA821283F86820E1E708208FE700BF19
:10C040006409012000030050D209012010B5214CE1
:10C05000231893F93820072A1DDD144494F8603022
:10C060009B09032B12D11F288ABF1B4A4FF0A04205
:10C0700000F01F03D2F8101598BF0346D94001F015
:10C0800001010231BDE81040FFF7D8BD012B0CBF04
:10C0900002210321F6E7D3B2072B19D8930003F14D
:10C0A000804303F5C043D3F8100540F00100C3F806
:10C0B000100502F14000800080B2FFF7A5FD39B104
:10C0C00054F8223023B101239340044AC2F80433C8
:10C0D00010BD00BF64090120000300500060004053
:10C0E0002DE9F04F002485B0CDE90244584D4FF4BE
:10C0F0008072012102F1804303F5C0431B68012BCC
:10C1000007D1D5F804330B4203D090B2FFF77CFD82
:10C110000C430432B2F5907F4FEA4101EAD14C4B17
:10C12000D3F87C31012B11D14FF4BE70FFF76CFDB9
:10C130004FF0A04344F00044D3F820250292C3F806
:10C140002025D3F820280392C3F82028E3B2D3B1E6
:10C15000404F01260025344210D0AB0003F180434C
:10C1600003F5C043D3F81005D3F8101557F8253060
:10C1700023B1C1F30141C0F3052098470135082DD3
:10C180004FEA4606E7D1002C59DA324EDFF8CC9060
:10C19000314F4FF0000A4FF0010817F9013F5A1CC8
:10C1A0003AD0C3F3C20210326A44DCB212F8081C5F
:10C1B00003F0070208FA02F2114203F03F052BD008
:10C1C0001F2D8BBF03F01F022A464B464FF0A043A2
:10C1D00002F5E071284653F821100193C1F3014B99
:10C1E000BBF1020F14BF02210321FFF727FD019BC2
:10C1F00008FA02F2C3F82025731993F9383056F87B
:10C2000023304BB1A109032904D0BBF1020F19D18E
:10C21000012901D1284698470AF1010ABAF1060F0F
:10C22000BBD14FF0A042D2F820350293C2F820359E
:10C23000D9F8202503921343C9F82025A8D105B0C9
:10C24000BDE8F08FBBF1030FE6D10229E1E700BFA3
:10C250000060004064090120CB0901200003005068
:10C26000014B1B68184700BFDC0901200D4B9842A9
:10C2700037B50C4611D100230DF107008DF80730BA
:10C28000FBF7F4F8084B1D7915B901221C601A71EF
:10C290009DF80700FBF70EF915B9002003B030BD7B
:10C2A0001120FBE700200040DC090120034B9842ED
:10C2B00001BF034B00221A601A7170470020004032
:10C2C000DC09012010B5124C2378FBB9114B196021
:10C2D000037813F0010F104B1EBFD3F8042542F072
:10C2E0000102C3F80425D3F8002222F00102C3F8AA
:10C2F00000224378094A5B01DBB282F80D334FF428
:10C300000053136001232370002010BD8520FCE73B
:10C31000E8090120E409012000D0004000E100E02C
:10C32000074B002282B0C3F80021D3F8002101920C
:10C33000019A0122C3F804231A6002B0704700BFBB
:10C3400000D00040024B0122C3F808235A60704716
:10C3500000D00040084B0122C3F808235A60074B65
:10C360004FF40052C3F88020BFF34F8FBFF36F8F9D
:10C37000034B00221A70704700D0004000E100E03B
:10C38000E8090120074B002282B0C3F80021D3F84E
:10C3900000210192019AD3F80805034B1B68C0B233
:10C3A00002B0184700D00040E40901201F2886BFD2
:10C3B00000F01F00044B4FF0A04300F5E070032293
:10C3C00043F82020704700BF000300501F2886BF9D
:10C3D000044A00F01F004FF0A04201238340C2F83E
:10C3E00008357047000300501F2886BF044A00F03C
:10C3F0001F004FF0A04201238340C2F80C35704764
:10C4000000030050134B07B5D3F81821F2B11249BD
:10C410000022C3F8182191F82000D3F818310193B5
:10C42000FF28019B05D08B7F1BB9CB7F5BB1FFF74A
:10C43000DBFF00234B770B72D1E90031074803B0D3
:10C440005DF804EB1847FFF7C1FFF2E703B05DF8B2
:10C4500004FB00BF00F00240EC090120F4090120B8
:10C460002DE9F04F824E07799846242303FB07639A
:10C4700085B01B7F01900C460392002B40F0F180A9
:10C4800087B18B7BFF2B40F0EE808B68B3F1206F80
:10C4900000F0E980B3F1A05F00F0E5800B7C002B99
:10C4A00040F0E180019B73491D682846FFF7DEFEDE
:10C4B0000146002840F0D98024227A430398B050E6
:10C4C000B318C3F8048094F80CA094F80090BAF163
:10C4D000010F484600F2AD80FFF786FFB9F11F0F4C
:10C4E0008BBF09F01F034B46634A4FF0A04203F590
:10C4F000E073012042F8230094F80180B8F1FF0FA7
:10C5000000F09A804046FFF76FFF4046FFF74EFF6E
:10C51000A378FF2B00F093801F2B8ABF03F01F022C
:10C520001A465548029398BF4FF0A04002F5E072BA
:10C530004FF0040C40F822C0242202FB076282F86C
:10C54000213094F803B082F820B0BBF1FF0F1DD06A
:10C55000237900935846002B75D0FFF745FF5846C6
:10C56000FFF724FF237C63B1242303FB076301222D
:10C570009A77637C009AC5F814B5C5F86825C5F8A4
:10C580006435242303FB0763009ADA7794F80EB02E
:10C59000BBF1FF0F07D05846FFF718FF5846FFF7CB
:10C5A00005FFC5F86CB5E37BC5F86035029BC5F89F
:10C5B0000895C5F80C85C5F81035A368C5F824356D
:10C5C000637B003B18BF0123BAF1020F3ED0BAF1E2
:10C5D000030F3ED0BAF1010F01D143F00203C5F8B9
:10C5E0005435A379C5F8C0350723C5F80035039B3A
:10C5F000A3B1019B62791B6843F307335201002BFF
:10C60000D2B229DB1D48C41884F8002301225C093A
:10C6100003F01F0302FA03F340F82430242303FB42
:10C6200007660023737701233377084605B0BDE81A
:10C63000F08FFFF7CBFE51E74FF0FF3868E74FF080
:10C64000FF32029278E7FFF7C1FE88E743F0040368
:10C65000C5E743F00603C2E7094803F00F03C254DD
:10C66000DCE70821E1E70621DFE71121DDE700BF74
:10C67000EC09012005C402000003005000E100E0C5
:10C6800014ED00E038B50579284C24236B43E358BA
:10C6900093B1036843F30733002B0DDB5A090121E3
:10C6A00003F01F03994002F12003214A42F82310AE
:10C6B000BFF34F8FBFF36F8F24236B43E218E35810
:10C6C00000687BB11B4BC0F80833537F53B1012383
:10C6D0004361D0F80431002BFBD0242303FB054336
:10C6E00000225A77242303FB054393F82130FF2BC4
:10C6F0000BD01F2B86BF03F01F030F4A4FF0A04241
:10C7000003F5E073022142F823100023C0F800353E
:10C710000A4B984204BF01234360FFF7C7FD24235F
:10C7200003FB05440023237738BD00BFEC0901203B
:10C7300000E100E0520108000003005000F0024058
:10C740002DE9F34790F80480444E242303FB08F3BB
:10C750001546F2180C46517F824600297CD156F8C6
:10C760000390B9F1000F04D015F0140F04BF01239A
:10C77000537794E80F00242707FB086707F10C0C98
:10C780008CE80F0097F82010FF2906D0BB7F23B953
:10C79000FB7F0846C3B1FFF719FE206820B100F007
:10C7A0006043B3F1005F06D1A26882B102F060433A
:10C7B000B3F1005F0BD0242303FB086300225A77F8
:10C7C000102002B0BDE8F087FFF70EFEE5E7DAF8CB
:10C7D00000306768C3F84405C3F84875E068C3F8DB
:10C7E00034250022C3F83805C3F81821D3F81821DE
:10C7F0000192019A15F0010218BF0122C3F85025D9
:10C8000015F0020218BF0122C3F840252A075CBFB9
:10C8100001221A61B9F1000F14D1D3F81821002AAE
:10C82000FBD0FF2909D0242303FB0866B37F23B97B
:10C83000F37F08461BB1FFF7D7FD0020C1E7FFF7E4
:10C84000C5FDFAE715F0040F4FF0400214BFC3F81E
:10C850000823C3F80423F0E71120B2E7EC09012014
:10C860002DE9F347002406460F46904600F5A075D3
:10C870004FF48039A2462B688BB1D6F8043309FAFD
:10C8800004F21A420BD0C5F800A02B680193A00057
:10C89000019B00F5A07398B2D7E9003198470134A5
:10C8A000444505F10405E6D102B0BDE8F08700007B
:10C8B000F7B50579294C0C236B43E71816463A7AED
:10C8C000002A48D1E6504B687B604779036894465C
:10C8D000D6B2B74230D8CA7843F307335201002B9F
:10C8E000D2B233DB1E4EF71887F8002301225F090E
:10C8F00003F01F0302FA03F346F827300368487871
:10C90000D3F8042560F30102C3F804258878D3F82E
:10C91000082560F30102C3F80825D3F8102509782B
:10C9200061F30302C3F810250C2303FB0544012324
:10C930002372002003B0F0BD960006F5A076013208
:10C9400043F806C09E590196019EC1E7054E03F0CB
:10C950000F03F254D2E70820ECE700BF100A0120D1
:10C9600000E100E014ED00E0036801221A600279A2
:10C97000034B0C2101FB023302221A72704700BFE5
:10C98000100A0120036801221A610179024B0C2070
:10C9900000FB01331A727047100A012038B5036892
:10C9A00043F30733002B04460DDB5A09012103F042
:10C9B0001F03994002F120030D4A42F82310BFF3F0
:10C9C0004F8FBFF36F8F23680025D3F80022C3F881
:10C9D00000524FF0FF32C3F808232046FFF7D2FF82
:10C9E0002279044B0C2101FB02331D7238BD00BFBC
:10C9F00000E100E0100A012003680122DA607047BC
:10CA000037B54FF4803400688C407BB18B0003F560
:10CA1000A0730025C550C3580193019BC0F804437F
:10CA200001F5A87140F8212003B030BDC0F80843DB
:10CA3000F6E770B4046840F20116D4F800528E4054
:10CA400025EA0605C4F80052D4F800522B43C4F876
:10CA500000329DF80C3070BCFFF7D2BF8B0003F59D
:10CA6000A07302689BB2002082B0D050D3580193CB
:10CA7000019B4FF480338B40C2F8043302B07047FF
:10CA800002684FF480338B40C2F8083370470000CF
:10CA9000024903480422FFF7E3BE00BF100A012049
:10CAA00000800040024903480422FFF7D9BE00BFBE
:10CAB0001C0A012000900040024903480422FFF7AD
:10CAC000CFBE00BF280A012000A000400249034851
:10CAD0000622FFF7C5BE00BF340A012000A00140B6
